:020000001C28BA
:100014000F3982073F3406345B344F3466346D3411
:100024007D3407347F346F3477347C3439345E3430
:100034007934713440202B20472005185620851828
:100044005D200B1D1F285220870A091809106420FF
:100054001F28031783168801890103138316F030C0
:100064008700F03088018901031383128701880116
:100074008901F00170080A20880008000313831620
:100084000F138F160F120F14080003138316811217
:1000940081110115811401100313831252200800E9
:1000A4000C3081000B11080005185628F00A70085E
:1000B4000A208800080085185D28F00370080A20CB
:1000C40088000800031170080702031909140319B2
:0800D400870103195220080006
:04400E00C430FF3F7C
:00000001FF
