:020000001C28BA
:100014000F3982073F3406345B344F3466346D3411
:100024007D3407347F346F3477347C3439345E3430
:10003400793471343D202B20442005185320851831
:100044005A200B1D1F284F20870A09180910612008
:100054001F28031783168801890103138316F030C0
:100064008700F03088018901031383128701880116
:100074008901F0010800031383160F138F160F1262
:100084000F140800031383168112811101158114C2
:100094000110031383124F2008000C3081000B1150
:1000A400080005185328F00A70080A208800080080
:1000B40085185A28F00370080A20880008000311E4
:1000C40070080702031909140319870103194F2043
:0200D400080022
:04400E00C430FF3F7C
:00000001FF
